{
  "address": "0xe7f1725E7734CE288F8367e1Bb143E90bb3F0512",
  "abi": [
    {
      "inputs": [
        {
          "internalType": "address",
          "name": "priceFeedAddress",
          "type": "address"
        }
      ],
      "stateMutability": "nonpayable",
      "type": "constructor"
    },
    {
      "inputs": [],
      "name": "FundMe_CallFailed",
      "type": "error"
    },
    {
      "inputs": [],
      "name": "FundMe__NotOwner",
      "type": "error"
    },
    {
      "inputs": [],
      "name": "FundMe__SpendMoreETH",
      "type": "error"
    },
    {
      "inputs": [],
      "name": "MINIMUM_USD",
      "outputs": [
        {
          "internalType": "uint256",
          "name": "",
          "type": "uint256"
        }
      ],
      "stateMutability": "view",
      "type": "function"
    },
    {
      "inputs": [],
      "name": "cheaperWithdraw",
      "outputs": [],
      "stateMutability": "payable",
      "type": "function"
    },
    {
      "inputs": [],
      "name": "fund",
      "outputs": [],
      "stateMutability": "payable",
      "type": "function"
    },
    {
      "inputs": [
        {
          "internalType": "address",
          "name": "funder",
          "type": "address"
        }
      ],
      "name": "getAddressToAmountFunded",
      "outputs": [
        {
          "internalType": "uint256",
          "name": "",
          "type": "uint256"
        }
      ],
      "stateMutability": "view",
      "type": "function"
    },
    {
      "inputs": [
        {
          "internalType": "uint256",
          "name": "index",
          "type": "uint256"
        }
      ],
      "name": "getFunder",
      "outputs": [
        {
          "internalType": "address",
          "name": "",
          "type": "address"
        }
      ],
      "stateMutability": "view",
      "type": "function"
    },
    {
      "inputs": [],
      "name": "getOwner",
      "outputs": [
        {
          "internalType": "address",
          "name": "",
          "type": "address"
        }
      ],
      "stateMutability": "view",
      "type": "function"
    },
    {
      "inputs": [],
      "name": "getPriceFeed",
      "outputs": [
        {
          "internalType": "contract AggregatorV3Interface",
          "name": "",
          "type": "address"
        }
      ],
      "stateMutability": "view",
      "type": "function"
    },
    {
      "inputs": [
        {
          "internalType": "address",
          "name": "",
          "type": "address"
        }
      ],
      "name": "s_addressToAmountFunded",
      "outputs": [
        {
          "internalType": "uint256",
          "name": "",
          "type": "uint256"
        }
      ],
      "stateMutability": "view",
      "type": "function"
    },
    {
      "inputs": [
        {
          "internalType": "uint256",
          "name": "",
          "type": "uint256"
        }
      ],
      "name": "s_funders",
      "outputs": [
        {
          "internalType": "address",
          "name": "",
          "type": "address"
        }
      ],
      "stateMutability": "view",
      "type": "function"
    },
    {
      "inputs": [],
      "name": "s_priceFeed",
      "outputs": [
        {
          "internalType": "contract AggregatorV3Interface",
          "name": "",
          "type": "address"
        }
      ],
      "stateMutability": "view",
      "type": "function"
    },
    {
      "inputs": [],
      "name": "withdraw",
      "outputs": [],
      "stateMutability": "payable",
      "type": "function"
    }
  ],
  "transactionHash": "0xc574db038cff66d9e90409926d80aecf2d6fa59fe5e00f0ce86c1ad7a7438284",
  "args": [
    "0x5FbDB2315678afecb367f032d93F642f64180aa3"
  ],
  "numDeployments": 1,
  "solcInputHash": "09d33eb2b6aa64011cbc0300c002e06b",
  "bytecode": "0x60a06040523480156200001157600080fd5b506040516200130c3803806200130c833981810160405281019062000037919062000120565b3373ffffffffffffffffffffffffffffffffffffffff1660808173ffffffffffffffffffffffffffffffffffffffff1660601b8152505080600260006101000a81548173ffffffffffffffffffffffffffffffffffffffff021916908373ffffffffffffffffffffffffffffffffffffffff1602179055505062000152565b600080fd5b600073ffffffffffffffffffffffffffffffffffffffff82169050919050565b6000620000e882620000bb565b9050919050565b620000fa81620000db565b81146200010657600080fd5b50565b6000815190506200011a81620000ef565b92915050565b600060208284031215620001395762000138620000b6565b5b6000620001498482850162000109565b91505092915050565b60805160601c61118662000186600039600081816102e70152818161056c015281816106ed01526108e301526111866000f3fe60806040526004361061009c5760003560e01c80636b69a592116100645780636b69a5921461018d578063893d20e8146101b85780639e87a5cd146101e3578063b60d42881461020e578063be2693f014610218578063d7b4750c146102225761009c565b80630343fb25146100a15780630ec3b027146100de5780631bf6132d146101095780633ccfd60b1461014657806354861af714610150575b600080fd5b3480156100ad57600080fd5b506100c860048036038101906100c39190610ba7565b61025f565b6040516100d59190610bed565b60405180910390f35b3480156100ea57600080fd5b506100f36102a7565b6040516101009190610c67565b60405180910390f35b34801561011557600080fd5b50610130600480360381019061012b9190610ba7565b6102cd565b60405161013d9190610bed565b60405180910390f35b61014e6102e5565b005b34801561015c57600080fd5b5061017760048036038101906101729190610cae565b61051c565b6040516101849190610cea565b60405180910390f35b34801561019957600080fd5b506101a261055b565b6040516101af9190610bed565b60405180910390f35b3480156101c457600080fd5b506101cd610568565b6040516101da9190610cea565b60405180910390f35b3480156101ef57600080fd5b506101f8610590565b6040516102059190610c67565b60405180910390f35b6102166105ba565b005b6102206106eb565b005b34801561022e57600080fd5b5061024960048036038101906102449190610cae565b610979565b6040516102569190610cea565b60405180910390f35b60008060008373ffffffffffffffffffffffffffffffffffffffff1673ffffffffffffffffffffffffffffffffffffffff168152602001908152602001600020549050919050565b600260009054906101000a900473ffffffffffffffffffffffffffffffffffffffff1681565b60006020528060005260406000206000915090505481565b7f000000000000000000000000000000000000000000000000000000000000000073ffffffffffffffffffffffffffffffffffffffff163373ffffffffffffffffffffffffffffffffffffffff161461036a576040517f579610db00000000000000000000000000000000000000000000000000000000815260040160405180910390fd5b60005b600180549050811015610415576000600182815481106103905761038f610d05565b5b9060005260206000200160009054906101000a900473ffffffffffffffffffffffffffffffffffffffff16905060008060008373ffffffffffffffffffffffffffffffffffffffff1673ffffffffffffffffffffffffffffffffffffffff1681526020019081526020016000208190555050808061040d90610d63565b91505061036d565b50600067ffffffffffffffff81111561043157610430610dac565b5b60405190808252806020026020018201604052801561045f5781602001602082028036833780820191505090505b5060019080519060200190610475929190610a9d565b5060003373ffffffffffffffffffffffffffffffffffffffff164760405161049c90610e0c565b60006040518083038185875af1925050503d80600081146104d9576040519150601f19603f3d011682016040523d82523d6000602084013e6104de565b606091505b5050905080610519576040517f63f4c94300000000000000000000000000000000000000000000000000000000815260040160405180910390fd5b50565b6001818154811061052c57600080fd5b906000526020600020016000915054906101000a900473ffffffffffffffffffffffffffffffffffffffff1681565b6802b5e3af16b188000081565b60007f0000000000000000000000000000000000000000000000000000000000000000905090565b6000600260009054906101000a900473ffffffffffffffffffffffffffffffffffffffff16905090565b6802b5e3af16b18800006105f9600260009054906101000a900473ffffffffffffffffffffffffffffffffffffffff16346109c190919063ffffffff16565b1015610631576040517f5f4702e900000000000000000000000000000000000000000000000000000000815260040160405180910390fd5b346000803373ffffffffffffffffffffffffffffffffffffffff1673ffffffffffffffffffffffffffffffffffffffff168152602001908152602001600020600082825461067f9190610e21565b925050819055506001339080600181540180825580915050600190039060005260206000200160009091909190916101000a81548173ffffffffffffffffffffffffffffffffffffffff021916908373ffffffffffffffffffffffffffffffffffffffff160217905550565b7f000000000000000000000000000000000000000000000000000000000000000073ffffffffffffffffffffffffffffffffffffffff163373ffffffffffffffffffffffffffffffffffffffff1614610770576040517f579610db00000000000000000000000000000000000000000000000000000000815260040160405180910390fd5b600060018054806020026020016040519081016040528092919081815260200182805480156107f457602002820191906000526020600020905b8160009054906101000a900473ffffffffffffffffffffffffffffffffffffffff1673ffffffffffffffffffffffffffffffffffffffff16815260200190600101908083116107aa575b5050505050905060005b815181101561087e57600082828151811061081c5761081b610d05565b5b6020026020010151905060008060008373ffffffffffffffffffffffffffffffffffffffff1673ffffffffffffffffffffffffffffffffffffffff1681526020019081526020016000208190555050808061087690610d63565b9150506107fe565b50600067ffffffffffffffff81111561089a57610899610dac565b5b6040519080825280602002602001820160405280156108c85781602001602082028036833780820191505090505b50600190805190602001906108de929190610a9d565b5060007f000000000000000000000000000000000000000000000000000000000000000073ffffffffffffffffffffffffffffffffffffffff164760405161092590610e0c565b60006040518083038185875af1925050503d8060008114610962576040519150601f19603f3d011682016040523d82523d6000602084013e610967565b606091505b505090508061097557600080fd5b5050565b60006001828154811061098f5761098e610d05565b5b9060005260206000200160009054906101000a900473ffffffffffffffffffffffffffffffffffffffff169050919050565b6000806109cd836109fd565b90506000670de0b6b3a764000085836109e69190610e77565b6109f09190610f00565b9050809250505092915050565b6000808273ffffffffffffffffffffffffffffffffffffffff1663feaf968c6040518163ffffffff1660e01b815260040160a06040518083038186803b158015610a4657600080fd5b505afa158015610a5a573d6000803e3d6000fd5b505050506040513d601f19601f82011682018060405250810190610a7e9190610fbe565b5050509150506402540be40081610a959190611039565b915050919050565b828054828255906000526020600020908101928215610b16579160200282015b82811115610b155782518260006101000a81548173ffffffffffffffffffffffffffffffffffffffff021916908373ffffffffffffffffffffffffffffffffffffffff16021790555091602001919060010190610abd565b5b509050610b239190610b27565b5090565b5b80821115610b40576000816000905550600101610b28565b5090565b600080fd5b600073ffffffffffffffffffffffffffffffffffffffff82169050919050565b6000610b7482610b49565b9050919050565b610b8481610b69565b8114610b8f57600080fd5b50565b600081359050610ba181610b7b565b92915050565b600060208284031215610bbd57610bbc610b44565b5b6000610bcb84828501610b92565b91505092915050565b6000819050919050565b610be781610bd4565b82525050565b6000602082019050610c026000830184610bde565b92915050565b6000819050919050565b6000610c2d610c28610c2384610b49565b610c08565b610b49565b9050919050565b6000610c3f82610c12565b9050919050565b6000610c5182610c34565b9050919050565b610c6181610c46565b82525050565b6000602082019050610c7c6000830184610c58565b92915050565b610c8b81610bd4565b8114610c9657600080fd5b50565b600081359050610ca881610c82565b92915050565b600060208284031215610cc457610cc3610b44565b5b6000610cd284828501610c99565b91505092915050565b610ce481610b69565b82525050565b6000602082019050610cff6000830184610cdb565b92915050565b7f4e487b7100000000000000000000000000000000000000000000000000000000600052603260045260246000fd5b7f4e487b7100000000000000000000000000000000000000000000000000000000600052601160045260246000fd5b6000610d6e82610bd4565b91507fffffffffffffffffffffffffffffffffffffffffffffffffffffffffffffffff821415610da157610da0610d34565b5b600182019050919050565b7f4e487b7100000000000000000000000000000000000000000000000000000000600052604160045260246000fd5b600081905092915050565b50565b6000610df6600083610ddb565b9150610e0182610de6565b600082019050919050565b6000610e1782610de9565b9150819050919050565b6000610e2c82610bd4565b9150610e3783610bd4565b9250827fffffffffffffffffffffffffffffffffffffffffffffffffffffffffffffffff03821115610e6c57610e6b610d34565b5b828201905092915050565b6000610e8282610bd4565b9150610e8d83610bd4565b9250817fffffffffffffffffffffffffffffffffffffffffffffffffffffffffffffffff0483118215151615610ec657610ec5610d34565b5b828202905092915050565b7f4e487b7100000000000000000000000000000000000000000000000000000000600052601260045260246000fd5b6000610f0b82610bd4565b9150610f1683610bd4565b925082610f2657610f25610ed1565b5b828204905092915050565b600069ffffffffffffffffffff82169050919050565b610f5081610f31565b8114610f5b57600080fd5b50565b600081519050610f6d81610f47565b92915050565b6000819050919050565b610f8681610f73565b8114610f9157600080fd5b50565b600081519050610fa381610f7d565b92915050565b600081519050610fb881610c82565b92915050565b600080600080600060a08688031215610fda57610fd9610b44565b5b6000610fe888828901610f5e565b9550506020610ff988828901610f94565b945050604061100a88828901610fa9565b935050606061101b88828901610fa9565b925050608061102c88828901610f5e565b9150509295509295909350565b600061104482610f73565b915061104f83610f73565b9250827f7fffffffffffffffffffffffffffffffffffffffffffffffffffffffffffffff048211600084136000841316161561108e5761108d610d34565b5b817f800000000000000000000000000000000000000000000000000000000000000005831260008412600084131616156110cb576110ca610d34565b5b827f8000000000000000000000000000000000000000000000000000000000000000058212600084136000841216161561110857611107610d34565b5b827f7fffffffffffffffffffffffffffffffffffffffffffffffffffffffffffffff058212600084126000841216161561114557611144610d34565b5b82820290509291505056fea264697066735822122078da183d9dbd609ddd2a3e0442f64f8db03a7edbc70e4d374331b38a06d3ce8264736f6c63430008080033",
  "devdoc": {
    "author": "Patrick Collins",
    "details": "This implements price feeds into our library",
    "kind": "dev",
    "methods": {
      "fund()": {
        "details": "This implements price feeds into our library"
      }
    },
    "title": "A contract for crowd funding",
    "version": 1
  },
  "userdoc": {
    "kind": "user",
    "methods": {
      "fund()": {
        "notice": "This function funds this contract"
      }
    },
    "notice": "This contract is to demo a sample funding contract",
    "version": 1
  },
  "storageLayout": {
    "storage": [
      {
        "astId": 64,
        "contract": "contracts/FundMe.sol:FundMe",
        "label": "s_addressToAmountFunded",
        "offset": 0,
        "slot": "0",
        "type": "t_mapping(t_address,t_uint256)"
      },
      {
        "astId": 67,
        "contract": "contracts/FundMe.sol:FundMe",
        "label": "s_funders",
        "offset": 0,
        "slot": "1",
        "type": "t_array(t_address)dyn_storage"
      },
      {
        "astId": 79,
        "contract": "contracts/FundMe.sol:FundMe",
        "label": "s_priceFeed",
        "offset": 0,
        "slot": "2",
        "type": "t_contract(AggregatorV3Interface)45"
      }
    ],
    "types": {
      "t_address": {
        "encoding": "inplace",
        "label": "address",
        "numberOfBytes": "20"
      },
      "t_array(t_address)dyn_storage": {
        "base": "t_address",
        "encoding": "dynamic_array",
        "label": "address[]",
        "numberOfBytes": "32"
      },
      "t_contract(AggregatorV3Interface)45": {
        "encoding": "inplace",
        "label": "contract AggregatorV3Interface",
        "numberOfBytes": "20"
      },
      "t_mapping(t_address,t_uint256)": {
        "encoding": "mapping",
        "key": "t_address",
        "label": "mapping(address => uint256)",
        "numberOfBytes": "32",
        "value": "t_uint256"
      },
      "t_uint256": {
        "encoding": "inplace",
        "label": "uint256",
        "numberOfBytes": "32"
      }
    }
  }
}